S00C0000554152542E73726563DC
S113000045C0000058C0000056C0000054C00000A5
S113001052C0000050C000004EC000004CC00000A0
S11300204AC0000048C0000046C0000044C00000B0
S113003042C0000040C000003EC000003CC00000C0
S11300403AC0000038C0000036C0000034C00000D0
S113005032C0000030C000002EC000002CC00000E0
S11300602AC0000028C0000026C0000024C00000F0
S113007022C0000020C000001EC000001CC0000000
S11300801AC0000018C0000016C0000011241FBED2
S1130090CFEFD0E1DEBFCDBF11E0A0E0B1E0E2E3FD
S11300A0F1E000E00BBF02C007900D92AA31B10746
S11300B0D9F71CD03CC0A4CF88E18AB91BB886E02C
S11300C0809395001092900083E089B908955D9B18
S11300D0FECF8CB90895CF93DF93EC0189918823E7
S11300E011F0F5DFFBCFDF91CF910895CF93DF932C
S11300F0CDB7DEB769970FB6F894DEBF0FBECDBF9C
S113010089E1E0E0F1E0DE01119601900D928A951B
S1130110E1F7D2DFCE010196DEDF2FEF8FE39BE024
S1130120215080409040E1F700C00000F3CFF894E4
S1050130FFCFFB
S1130132456D62656464656420486F6E67206B690F
S10D01426C2D646F6E670D0A000057
S9030000FC
